{
  "transactions": [
    {
      "hash": "0x0e575e9483a8c24a23e31a97e5eb266cacf713eed5d661d246ab86f076fb6a70",
      "transactionType": "CALL",
      "contractName": null,
      "contractAddress": "0x8447980cda681919e96d237e9aa2d5cf369921db",
      "function": "createProposal(uint256,uint256,string)",
      "arguments": [
        "1000000000000000000",
        "30",
        "ipfs://meu-nft-teste"
      ],
      "transaction": {
        "from": "0xb21eb4b34485bc72f7f314314d8d49c7d05d22de",
        "to": "0x8447980cda681919e96d237e9aa2d5cf369921db",
        "gas": "0x5e0a4",
        "value": "0x16345785d8a0000",
        "input": "0xe8aaf9880000000000000000000000000000000000000000000000000de0b6b3a7640000000000000000000000000000000000000000000000000000000000000000001e00000000000000000000000000000000000000000000000000000000000000600000000000000000000000000000000000000000000000000000000000000014697066733a2f2f6d65752d6e66742d7465737465000000000000000000000000",
        "nonce": "0xb",
        "chainId": "0x72"
      },
      "additionalContracts": [],
      "isFixedGasLimit": false
    }
  ],
  "receipts": [
    {
      "status": "0x1",
      "cumulativeGasUsed": "0x404d1",
      "logs": [
        {
          "address": "0x9bea0c3f43a951619bc44d911447f3780c1b8e3d",
          "topics": [
            "0xddf252ad1be2c89b69c2b068fc378daa952ba7f163c4a11628f55a4df523b3ef",
            "0x0000000000000000000000000000000000000000000000000000000000000000",
            "0x000000000000000000000000b21eb4b34485bc72f7f314314d8d49c7d05d22de",
            "0x0000000000000000000000000000000000000000000000000000000000000001"
          ],
          "data": "0x",
          "blockHash": "0xf05ef0c74353eae719eee34d44bf4cc2c1c2f80cbd357c63431649d174837154",
          "blockNumber": "0x119dcd5",
          "transactionHash": "0x0e575e9483a8c24a23e31a97e5eb266cacf713eed5d661d246ab86f076fb6a70",
          "transactionIndex": "0x0",
          "logIndex": "0x0",
          "removed": false
        },
        {
          "address": "0x1000000000000000000000000000000000000002",
          "topics": [
            "0xe7aa66356adbd5e839ef210626f6d8f6f72109c17fadf4c4f9ca82b315ae79b4"
          ],
          "data": "0x000000000000000000000000c738fdcde9cd2fbd72618d36ed71008b8d001ba4000000000000000000000000000000000000000000000000000000000000421a",
          "blockHash": "0xf05ef0c74353eae719eee34d44bf4cc2c1c2f80cbd357c63431649d174837154",
          "blockNumber": "0x119dcd5",
          "transactionHash": "0x0e575e9483a8c24a23e31a97e5eb266cacf713eed5d661d246ab86f076fb6a70",
          "transactionIndex": "0x0",
          "logIndex": "0x1",
          "removed": false
        },
        {
          "address": "0x1000000000000000000000000000000000000002",
          "topics": [
            "0xe7aa66356adbd5e839ef210626f6d8f6f72109c17fadf4c4f9ca82b315ae79b4"
          ],
          "data": "0x000000000000000000000000d2a1bb23eb350814a30dd6f9de78bb2c8fdd9f1d0000000000000000000000000000000000000000000000000000000000003b68",
          "blockHash": "0xf05ef0c74353eae719eee34d44bf4cc2c1c2f80cbd357c63431649d174837154",
          "blockNumber": "0x119dcd5",
          "transactionHash": "0x0e575e9483a8c24a23e31a97e5eb266cacf713eed5d661d246ab86f076fb6a70",
          "transactionIndex": "0x0",
          "logIndex": "0x2",
          "removed": false
        },
        {
          "address": "0x1000000000000000000000000000000000000002",
          "topics": [
            "0xe7aa66356adbd5e839ef210626f6d8f6f72109c17fadf4c4f9ca82b315ae79b4"
          ],
          "data": "0x0000000000000000000000006892bdbbb14e1c9bd46bf31e7bac94d038fc82a6000000000000000000000000000000000000000000000000000000000000422d",
          "blockHash": "0xf05ef0c74353eae719eee34d44bf4cc2c1c2f80cbd357c63431649d174837154",
          "blockNumber": "0x119dcd5",
          "transactionHash": "0x0e575e9483a8c24a23e31a97e5eb266cacf713eed5d661d246ab86f076fb6a70",
          "transactionIndex": "0x0",
          "logIndex": "0x3",
          "removed": false
        },
        {
          "address": "0x1000000000000000000000000000000000000002",
          "topics": [
            "0xe7aa66356adbd5e839ef210626f6d8f6f72109c17fadf4c4f9ca82b315ae79b4"
          ],
          "data": "0x000000000000000000000000bd33bdff04c357f7fc019e72d0504c24cf4aa0100000000000000000000000000000000000000000000000000000000000008f11",
          "blockHash": "0xf05ef0c74353eae719eee34d44bf4cc2c1c2f80cbd357c63431649d174837154",
          "blockNumber": "0x119dcd5",
          "transactionHash": "0x0e575e9483a8c24a23e31a97e5eb266cacf713eed5d661d246ab86f076fb6a70",
          "transactionIndex": "0x0",
          "logIndex": "0x4",
          "removed": false
        },
        {
          "address": "0x1000000000000000000000000000000000000002",
          "topics": [
            "0xe7aa66356adbd5e839ef210626f6d8f6f72109c17fadf4c4f9ca82b315ae79b4"
          ],
          "data": "0x000000000000000000000000a90db6d10f856799b10ef2a77ebcbf460ac71e5200000000000000000000000000000000000000000000000000000000000024f3",
          "blockHash": "0xf05ef0c74353eae719eee34d44bf4cc2c1c2f80cbd357c63431649d174837154",
          "blockNumber": "0x119dcd5",
          "transactionHash": "0x0e575e9483a8c24a23e31a97e5eb266cacf713eed5d661d246ab86f076fb6a70",
          "transactionIndex": "0x0",
          "logIndex": "0x5",
          "removed": false
        },
        {
          "address": "0x1000000000000000000000000000000000000002",
          "topics": [
            "0xe7aa66356adbd5e839ef210626f6d8f6f72109c17fadf4c4f9ca82b315ae79b4"
          ],
          "data": "0x0000000000000000000000000b162ca3acf3482d3357972e12d794434085d8390000000000000000000000000000000000000000000000000000000000012d53",
          "blockHash": "0xf05ef0c74353eae719eee34d44bf4cc2c1c2f80cbd357c63431649d174837154",
          "blockNumber": "0x119dcd5",
          "transactionHash": "0x0e575e9483a8c24a23e31a97e5eb266cacf713eed5d661d246ab86f076fb6a70",
          "transactionIndex": "0x0",
          "logIndex": "0x6",
          "removed": false
        }
      ],
      "logsBloom": "0x00020000000000000000000000000000000000100000000000000000008000000000000000000004000000000000000000000000000000000000000000040000000000000000000000400008000000000000000000040000000080000000000000000000028000000000000000000800000000000000000001000010000000000000000000000000000000000000000000000000000000000000000400000000080000000000000000000000000000000000000000000000000000000000000000000002000000000000000000000000010000000000000008000000000060000000000000000000000000000000000000000000000000000000000000000000",
      "type": "0x2",
      "transactionHash": "0x0e575e9483a8c24a23e31a97e5eb266cacf713eed5d661d246ab86f076fb6a70",
      "transactionIndex": "0x0",
      "blockHash": "0xf05ef0c74353eae719eee34d44bf4cc2c1c2f80cbd357c63431649d174837154",
      "blockNumber": "0x119dcd5",
      "gasUsed": "0x404d1",
      "effectiveGasPrice": "0xe91d29b22",
      "from": "0xb21eb4b34485bc72f7f314314d8d49c7d05d22de",
      "to": "0x8447980cda681919e96d237e9aa2d5cf369921db",
      "contractAddress": null
    }
  ],
  "libraries": [],
  "pending": [],
  "returns": {},
  "timestamp": 1749095765,
  "chain": 114,
  "commit": "6875deb"
}